:030000000200BE3D
:0C00BE00787FE4F6D8FD7581080200038D
:1000890049204C4F564520575A4821004C4F564558
:0B00990020594F552C424142592100D4
:0F005C008F807F057E0012006BD2B47F057E007F
:10006B00D3EF9400EE940040147D6E7C00ED1D7078
:0D007B00011CED4C70F7EF1F70E61E80E3D6
:010088002255
:0800CA00C2B512005CC2B422B1
:0800D200D2B512005CC2B42299
:1000A400C2A6C2A7C2B47F381200CA7F0C1200CA0B
:0A00B4007F061200CA7F010200CA95
:100003001200A47F901200CAE4F508E50890008965
:1000130093FF1200D21200670508E508C3940B4052
:10002300EA7FD01200CAE4F508E50890009593FF33
:100033001200D21200670508E508C3940E40EAE4F3
:10004300F5087F181200CA7FC87E0012006B0508EE
:09005300E508C3941040EB80FEA7
:00000001FF
