:030000000200D427
:0C00D400787FE4F6D8FD7581170200A4C7
:1000C4006D6173746572207472616E736D6974000E
:0900E0007599FF3099FDC29922C7
:100003007599023099FDC2993098FDC298E5996FB0
:1000130060028015C29B8D993099FDC2993098FD7D
:10002300C298AB99EB6007D29B1200E080D2ED64DB
:1000330001702AEB6024E4FCFEEE9000C493F59972
:100043002CFC3099FDC2990EBE10EE8C993099FDAF
:10005300C2993098FDC2987F00227F0022ED64028E
:10006300709EEB609BE4FCFE3098FDC29874082EF2
:10007300F8A69974082EF8E62CFC0EBE10EA309808
:10008300FDC298E599B5040AE4F5993099FDC29942
:10009300800A7599FF3099FDC29980C9D29B7F0070
:0100A300223A
:1000A400758920758DFD758BFDD28EE4F587759865
:1000B400F87D017F021200030D7F0212000380FE0F
:00000001FF
