:0300000002016496
:0C016400787FE4F6D8FD7581090201AB3C
:100212003F065B4F666D7D077F6F777C395E797134
:0401F0007F0A7E0004
:1001F400D3EF9400EE940040147D6E7C00ED1D70EE
:0D020400011CED4C70F7EF1F70E61E80E34B
:0102110022CA
:08022E008F993099FDC299225D
:0C022200EF90021293F580D2A6C2A62233
:1000030075B0FE85B0095309F0E50964F060491243
:1000130001F085B0095309F0E50964F0603A85B051
:1000230009E5092482601B24C0601224E0600924CE
:10003300F07012E4F508800D750801800875080258
:100043008003750803E50964F0600885B009530966
:10005300F080F2AF0812022E75B0FD85B009530986
:10006300F0E50964F060491201F085B0095309F025
:10007300E50964F0603A85B009E5092483601B242F
:10008300C0601224E0600924F07012750804800D2A
:1000930075080580087508068003750807E5096477
:1000A300F0600885B0095309F080F2AF0812022E00
:1000B30075B0FB85B0095309F0E50964F060491296
:1000C30001F085B0095309F0E50964F0603A85B0A1
:1000D30009E5092485601B24C0601224E06009241B
:1000E300F07012750808800D750809800875080AF4
:1000F300800375080BE50964F0600885B0095309AE
:10010300F080F2AF0812022E75B0F785B0095309DB
:10011300F0E50964F060491201F085B0095309F074
:10012300E50964F0603A85B009E5092489601B2478
:10013300C0601224E0600924F0701275080C800D71
:1001430075080D800875080E800375080FE50964AE
:10015300F0600885B0095309F080F2AF0812022E4F
:010163002279
:10017000020000E493A3F8E493A34003F68001F2A5
:1001800008DFF48029E493A3F85407240CC8C33390
:10019000C4540F4420C8834004F456800146F6DF5F
:1001A000E4800B0102040810204080900236E47EB7
:1001B000019360BCA3FF543F30E509541FFEE49354
:1001C000A360010ECF54C025E060A840B8E493A31B
:1001D000FAE493A3F8E493A3C8C582C8CAC583CA46
:1001E000F0A3C8C582C8CAC583CADFE9DEE780BEFE
:0102360000C7
:00000001FF
