:03000000020100FA
:0C010000787FE4F6D8FD75810802000E3F
:1000F0003F065B4F666D7D077F6F777C395E797158
:10008E00D3EF9400EE940040147D6E7C00ED1D7055
:0D009E00011CED4C70F7EF1F70E61E80E3B3
:0100AB002232
:10005D00AB05D2A77580DFC2A7D2A6EF9000F093B3
:10006D00F580C2A67F057E0012008ED2A77580EFA7
:10007D00C2A7D2A6EB93F580C2A67F057E00020033
:01008D008EE4
:0C010C00C2AF53E71843E70175E78022FB
:08000300E4F5E7F5E6D2AF22B7
:0B01180012010C75E64675E6B90022E6
:1000AC00AD07AC068CE3EDF5E453E5F843E501123E
:0800BC000118120003AFE2225B
:1000DB00EE54FEFEF5E3E4F5E453E5F843E50312D5
:0500EB000118020003F2
:1000C400AB07AA068AE3EBF5E453E5F843E5028DB2
:0700D400E212011802000313
:10000E00758901758C3C758AB0D28CD2AFD2A97F1E
:10001E00007E201200ACA907E9C3943C4002E4F92B
:10002E00E508C394144016E4F50809FF7E2012007B
:10003E00DBAD017E201200C4B93C02E4F9E975F093
:0F004E000A84AFF0E975F00A84FD12005D80D1DD
:03000B00020123CC
:09012300758C3C758AB0050832A8
:00000001FF
