:0300000002009467
:0C009400787FE4F6D8FD75810702002695
:07001C004920676574200014
:10007E00758920758DFD758BFDD28EC29FD29ED255
:06008E009CD2AFD2AC22AF
:1000260012007E900001E0B401F9C2ACE4A3F0A393
:10003600F0900002E0FEA3E0FFC39406EE940050A9
:1000460023741C2FF58274003EF583E493F59930F2
:1000560099FDC299900003E004F070D5900002E08B
:1000660004F080CD900000E0F5993099FDC299D258
:08007600ACE4900001F080AB46
:03002300020003D5
:10000300C0E0C083C082C298900000E599F0A37459
:0900130001F0D082D083D0E0326C
:00000001FF
