:030000000207C430
:0C07C400787FE4F6D8FD75812D02080B4B
:040CE60053554E0014
:100C8A00C102021300C8021500B4020F012C02119E
:020C9A00014017
:050CE000120CE5D2A199
:010CE50022EC
:100C3A00D3EF9400EE940040147D6E7C00ED1D709D
:0D0C4A00011CED4C70F7EF1F70E61E80E3FB
:010C5700227A
:0A0CBA00D2A0120CE0C2A0020CE56B
:0A0CC400C2A0120CE0D2A0020CE561
:080BDC00120CBA7FA0120C58A4
:100BE400D2A1120CE530A00BE529C394FA500405F8
:080BF4002980F2C2A1020CE508
:0A0CCE00D2A0120CE5D2A1020CE541
:100C5800E4FEEF25E0FFC2A1120CE592A0120CE021
:0E0C68000EBE08EEC2A1120CE5D2A0020CE5F1
:100BB700C2A1120CE5D2A0120CE5E4FED2A1120CE0
:100BC700E5EF25E0FDA2A0E4334DFFC2A1120CE53D
:040BD7000EBE08E85E
:010BDB0022F7
:0E0B9100AF191208507F8D120C9DAD197F0810
:100B9F00AC07120BDCAF04120C58120BE4AF0512AA
:080BAF000C58120BE4020CC407
:020BFC00AD0743
:100BFE00120BDCAF05120C58120BE4120CBA7FA1CB
:0C0C0E00120C58120BE4120BB7120CC4AD
:010C1A0022B7
:100B3900120C797F057E00120B4C7F55120C797FC0
:030B4900057E0026
:100B4C00D3EF9400EE940040147D6E7C00ED1D708C
:0D0B5C00011CED4C70F7EF1F70E61E80E3EA
:010B69002269
:0C0CAE00C2A37F647E00120B4CD2A32274
:100C9D00C2B5C2B48F80120B48D2B4120B48C2B485
:010CAD002224
:030C76002430FF28
:100C7900D2B5C2B48F80120B48D2B4120B48C2B499
:010C89002248
:060AD300AB187D0A7F0153
:040AD900A907AA05BA
:100ADD00EB75F00A8485F029EB75F00A84FBE9705B
:100AED0005EA24C08006B90110EA2480FF120C9D8E
:090AFD00EB120C76E529120C76CF
:010B060022CC
:06095400AC06AD077F0CAC
:06095A008F21AB05AA0489
:100960007C007D64AF03AE021202CB8F237C007D3E
:1009700064AF03AE021202CB7E007F0ACFCDCFCE92
:10098000CCCE1202CB8F22AE02AF037C007D64126C
:1009900002CB7E007F0ACFCDCFCECCCE1202CBAB26
:1009A00005E52124C0FF120C9DE5232430FF120C25
:1009B00079E5222430FF120C79E52124C3FF120CC3
:0809C0009DEB2430FF020C79CD
:10085000AB077F8D120C9DEB14B407005078900805
:100860006C75F003A4C58325F0C58373020881026B
:10087000088A0208940208A20208B00208BE020810
:10088000CC7F4D120B457F4F80117F54120B397F67
:10089000450208D37F57120B457F45120B457F4E0B
:1008A00080317F54120B457F48120B457F558023C2
:1008B0007F46120B457F52120B457F4980157F53AF
:1008C000120B457F41120B457F5480077F53120B5B
:0708D000397F4E120B452297
:1006D800E4F50AF51EF519F508F517F51AC2B7C2BB
:1006E800A7C2A6C2B4120CCE7F38120C9D7F0C1282
:1006F8000C9D7F06120C9D7F01120C9D7F8D120CA4
:100708009DE4FBEB900CE693FF120B450BBB03F348
:100718007F86120C9D7F2D120B457F89120C9D7FC1
:100728002D120B457FC4120C9D7F3A120B457FC7D3
:10073800120C9D7F3A120C797FCE120C9D7F2E12DF
:100748000B457F04120BFC8F187F05120BFC8F09D9
:100758007F06120BFC8F1D7F07120BFC8F1F120ADE
:10076800D3AB097D077F01120AD9AB1D7D047F0138
:10077800120AD9AB1F7D027F01120AD97F01120B21
:10078800FC8F087F02120BFC8F177F03120BFC8F64
:100798001AAB087D08E4FF120AD9AB177D05E4FF00
:1007A800120AD9AB1A7D02E4FF120AD975890175BC
:0B07B8008C3C758AB0D28CD2AFD2A965
:0107C3002213
:100C1B00C2A27F677E00EF1F70011EEF4E70F7D2EE
:0E0C2B00A27E007F04EF1F70011EEF4E70F7D7
:010C39002298
:100B6A00C2A20DBD0000D2A20DBD00000DBD000045
:100B7A00A2A292007C007D08ED1D70011CED4C7054
:060B8A00F7A200E433FFB6
:010B90002242
:100A9400E4F52AF52BFBFA120B6AAD077C00ED7E18
:100AA400007807C333CE33CED8F9F5828E83E52A96
:100AB400C313FEE52B13FFEE4583F52AEF4582F5BC
:0E0AC4002B0BBB00010AEB64084A70CBAF2B72
:010AD2002201
:0C0A3600120C1B7F017E00120B4C7FCCC9
:020A4200AD07FE
:100A4400E4FFFEED139201EDC313FD30011BC2A2BE
:100A54000BBB00000BBB0000D2A27A007B08EB1B8F
:100A640070011AEB4A70F7801BC2A27A007B08EB74
:100A74001B70011AEB4A70F7D2A20BBB00010A0BE0
:0F0A8400BB00010A0FBF00010EEF64084E70B4F3
:010A93002240
:08000300120A367F44020A4292
:1008D700120A367FBE120A42120A94A907120A9414
:1008E700751B008F1CE51C751C00F51BAF01EF4243
:1008F7001CE4AC1BAD1C120211E4FBFA7980783DB5
:100907001201068F0E8E0D8D0C8C0BE4FFFE7D20E1
:100917007C41AB0EAA0DA90CA80B120106E4FBFA49
:10092700F9783F12001512024A8E1B8F1CAF0EAECC
:100937000DAD0CAC0B7BCD7ACC794C783D12001504
:0C0947008F0E8E0D8D0C8C0BAE1BAF1CA8
:010953002281
:020B07008F2C31
:100B0900852C2DC2A3EDF4F590AF2D152DEF6008BE
:100B19001208D712095480F1D2A37590FF852C2DA4
:0F0B2900AF2D152DEF60081208D712095480F177
:010B3800229A
:0409C8008E248F25C5
:1009CC00D3E5259516E5249515400FD3E52595140B
:1009DC00E524951350047D018027D3E5259516E574
:1009EC0024951550047D038029D3E5259510E52425
:1009FC00950F4011D3E5259512E524951150067DF0
:100A0C00047F28800FC3E5259512E5249511400736
:100A1C007D0C7F0A020B07752628AF261526EF6082
:090A2C00081208D712095480F1E8
:010A3500229E
:10032E0020B074120B4820B06E051E30B0FD120CBA
:10033E00AEE51EB4010CC28C7FC8120C9D7F0F124D
:10034E000C9DE51EB402057FC5120C9DE51EB4037F
:10035E00057FC2120C9DE51EB404057F8A120C9D0A
:10036E00E51EB405057F87120C9DE51EB406057FBC
:10037E0084120C9DE51EB407057F82120C9DE51EAE
:10038E00B408057F8D120C9DE51EB4090AE4F51E16
:10039E007F0C120C9DD28CE51E70030205E230B16B
:1003AE00030204C9120B4830B1030204C930B1FD77
:1003BE00120CAEE51EB4011F0508E508B43C03E4BB
:1003CE00F508AB087D08E4FF120AD97FC8120C9D10
:1003DE00AD087F01120B9FE51EB4021F0517E5172E
:1003EE00B43C03E4F517AB177D05E4FF120AD97F81
:1003FE00C5120C9DAD177F02120B9FE51EB4031F95
:10040E00051AE51AB41803E4F51AAB1A7D02E4FFD7
:10041E00120AD97FC2120C9DAD1A7F03120B9FE5F3
:10042E001EB404190518E518B41D03E4F518120AD4
:10043E00D37F8A120C9DAD187F04120B9FE51EB45C
:10044E00051F0509E509B40C03E4F509AB097D07A1
:10045E007F01120AD97F87120C9DAD097F05120B01
:10046E009FE51EB4061F051DE51DB46303E4F51DCF
:10047E00AB1D7D047F01120AD97F84120C9DAD1D28
:10048E007F06120B9FE51EB4071F051FE51FB46301
:10049E0003E4F51FAB1F7D027F01120AD97F821282
:1004AE000C9DAD1F7F07120B9FE51EB4080D05199D
:1004BE00E519B40803751901120B9130B203020548
:1004CE00E2120B4830B2030205E230B2FD120CAE5E
:1004DE00E51EB4011F1508E508B4FF0375083BAB14
:1004EE00087D08E4FF120AD97FC8120C9DAD087F63
:1004FE0001120B9FE51EB4021F1517E517B4FF037B
:10050E0075173BAB177D05E4FF120AD97FC7120C96
:10051E009DAD177F02120B9FE51EB4031F151AE542
:10052E001AB4FF03751A17AB1A7D02E4FF120AD92B
:10053E007FC2120C9DAD1A7F03120B9FE51EB404F1
:10054E00190518E518B41D03E4F518120AD37F8AAD
:10055E00120C9DAD187F04120B9FE51EB4051F05EE
:10056E0009E509B40C03E4F509AB097D077F011217
:10057E000AD97F87120C9DAD097F05120B9FE51ED0
:10058E00B4061F051DE51DB46303E4F51DAB1D7D0B
:10059E00047F01120AD97F84120C9DAD1D7F0612B5
:1005AE000B9FE51EB4071F051FE51FB46303E4F59B
:1005BE001FAB1F7D027F01120AD97F82120C9DADE7
:1005CE001F7F07120B9FE51EB40809D51903751975
:0505DE0007120B912241
:080CD8001206D812032E80FB66
:03000B000205E308
:1005E300C0E0C0F0C0D075D000C001C002C003C0DD
:1005F30004C005C006C007758C3C758AB0050AE5C2
:100603000A641460030206C3F50A0508E508643C9E
:1006130060030206B3F5080517E517643C6003029F
:1006230006A3F517051AE51A64187064F51A051878
:10063300E518641D7050F5180509E509640C70365A
:10064300F509051DE51DB4631D751D00051FE51F97
:10065300B46303751F00AB1F7D027F01120AD9AD7E
:100663001F7F07120B9FAB1D7D047F01120AD9ADBB
:100673001D7F06120B9FAB097D077F01120AD9ADBF
:10068300097F05120B9F120AD3AD187F04120B9F2B
:10069300AB1A7D02E4FF120AD9AD1A7F03120B9F36
:1006A300AB177D05E4FF120AD9AD177F02120B9F2A
:1006B300AB087D08E4FF120AD9AD087F01120B9F36
:1006C300D007D006D005D004D003D002D001D0D0BB
:0506D300D0F0D0E03280
:10000E000202B6E86480F8E933E83360110460F068
:10001E00ED33EC337009E8FCE9FDEAFEEBFF220458
:10002E0060DED3EB9FEA9EE99DE8C2E78CF0C2F753
:10003E0095F0400CE8CCF8E9CDF9EACEFAEBCFFB1F
:10004E0012028185D0F05804700320D5B3E80470F5
:10005E00075002B2D50202C092D5EC0460F7E4CC90
:10006E00C0E0C398F8603B94186008400DD0E0FBE8
:10007E00020298E4FBFAC9FC8028E830E406E4C9E1
:10008E00FBE4CAFCE830E305E4C9CACBFCE854073C
:10009E006010F8C3E913F9EA13FAEB13FBEC13FC47
:1000AE00D8F130F52FC3E49CFCEF9BFFEE9AFEEDEA
:1000BE0099FDD0E0FBEF4E4D4C701222DB03020295
:1000CE00BDEC2CFCEF33FFEE33FEED33FDED30E7F0
:1000DE00EB020298EF2BFFEE3AFEED39FDD0E0FB7E
:1000EE0050130BBB00030202C0ED13FDEE13FEEF27
:0800FE0013FFEC13FC02029851
:10010600EC4D6011E8497017ED33EC3304600DE4F3
:10011600FCFFFEFD22E933E8330470F80202B61252
:10012600028158046009E4CC248150062850090253
:1001360002C02840030202BDC0E0EB4A7044B98009
:1001460006D0E0FB0202ACEF4E701CBD8008EBFF50
:10015600EAFEE9FD80EBE98DF0A4FEE5F00201EF91
:10016600E9CDF9EAFEEBFFEF89F0A4FCE5F0CE89D4
:10017600F0A42EFFE435F0CD89F0A42DFEE435F091
:100186008067EF4E7005BD80D780C3EF8BF0A4ACBF
:10019600F0EE8BF0A42CFCE435F0F8EF8AF0A42CFA
:1001A600E5F038FCE433CB8DF0A42CFCE5F03BF80D
:1001B600EE8AF0A42CFCE5F038F8E433CF89F0A4FD
:1001C6002CFCE5F038CF3400CE89F0A42FFFE5F003
:1001D6003EFEE433C98DF0A42EFEE5F039CD8AF05B
:1001E600A42FFFE5F03EFEE43DFD33D0E0FB5007D3
:1001F6000BBB000F0202C0EC2CFCEF33FFEE33FE0C
:06020600ED33FD02029839
:10020C0075F020800E75F010800575F0087D007E6D
:10021C00007F003392D530D503120320EC3340100D
:10022C00EF33FFEE33FEED33FDEC33FCD5F0ED2276
:0E023C00E5F0247EA2D513CC92E7CDCEFF22B2
:10024A00EDD2E7CD33EC3392D524814006E4FFFEAC
:10025A00FDFC22FCE4CFCECDCC24E0501174FF800B
:10026A00EDC3CC13CCCD13CDCE13CECF13CF0470A8
:07027A00F030D5DE02032085
:10028100E9D2E7C933E833F892D5EDD2E7CD33ECC3
:0702910033FC5002B2D5223C
:10029800EC30E7100FBF000C0EBE00080DBD0004C7
:1002A8000BEB6014A2D5EB13FCED92E7FD2274FF73
:1002B800FCFDFEFF22E480F8A2D574FF13FC7D80CC
:0302C800E480EFE0
:1007D000020CD8E493A3F8E493A34003F68001F25B
:1007E00008DFF48029E493A3F85407240CC8C3332A
:1007F000C4540F4420C8834004F456800146F6DFF9
:10080000E4800B0102040810204080900C8AE47EF2
:10081000019360BCA3FF543F30E509541FFEE493ED
:10082000A360010ECF54C025E060A840B8E493A3B4
:10083000FAE493A3F8E493A3C8C582C8CAC583CADF
:10084000F0A3C8C582C8CAC583CADFE9DEE780BE97
:010C9C000057
:1002CB00BC000BBE0029EF8DF084FFADF022E4CC17
:1002DB00F875F008EF2FFFEE33FEEC33FCEE9DECE0
:1002EB00984005FCEE9DFE0FD5F0E9E4CEFD22ED26
:1002FB00F8F5F0EE8420D21CFEADF075F008EF2F70
:10030B00FFED33FD4007985006D5F0F222C398FD60
:05031B000FD5F0EA22FD
:0E032000C3E49FFFE49EFEE49DFDE49CFC22EE
:00000001FF
