:100199003F065B4F666D7D077F6F777C395E7971AE
:040164007F0A7E0090
:10016800D3EF9400EE940040147D6E7C00ED1D707A
:0D017800011CED4C70F7EF1F70E61E80E3D8
:010185002257
:0C01A900EF90019993F580D2A6C2A62227
:1000030075B0FE85B0095309F0E50964F060491243
:10001300016485B0095309F0E50964F0603A85B0DD
:1000230009E5092482601B24C0601224E0600924CE
:10003300F07012E4F508800D750801800875080258
:100043008003750803E50964F0600885B009530966
:10005300F080F2AF081201A975B0FD85B00953090C
:10006300F0E50964F0604912016485B0095309F0B1
:10007300E50964F0603A85B009E5092483601B242F
:10008300C0601224E0600924F07012750804800D2A
:1000930075080580087508068003750807E5096477
:1000A300F0600885B0095309F080F2AF081201A986
:1000B30075B0FB85B0095309F0E50964F060491296
:1000C300016485B0095309F0E50964F0603A85B02D
:1000D30009E5092485601B24C0601224E06009241B
:1000E300F07012750808800D750809800875080AF4
:1000F300800375080BE50964F0600885B0095309AE
:10010300F080F2AF081201A975B0F785B009530961
:10011300F0E50964F0604912016485B0095309F000
:10012300E50964F0603A85B009E5092489601B2478
:10013300C0601224E0600924F0701275080C800D71
:1001430075080D800875080E800375080FE50964AE
:10015300F0600885B0095309F080F2AF081201A9D5
:010163002279
:10018600E4F580D2A6C2A67580C0D2A7C2A7120087
:030196000380FBE8
:030000000201B545
:0C01B500787FE4F6D8FD75810902018610
:00000001FF
