:030000000200D427
:0C00D400787FE4F6D8FD75810F0200571C
:1000C4003F065B4F666D7D077F6F777C395E797184
:09009D0093F580C2A67F057E00E8
:1000A600D3EF9400EE940040147D6E7C00ED1D703D
:0D00B600011CED4C70F7EF1F70E61E80E39B
:0100C300221A
:070003007C00FB7A00AF084E
:10000A008C0B8D0CD2A775807EC2A7D2A6EF90006A
:10001A00C412009DD2A775807DC2A7D2A674C4253A
:10002A000CF5827400350BF583E412009DD2A77596
:10003A00807BC2A7D2A674C42BF58274003AF583DA
:0D004A00E493F580C2A67F057E000200A6AB
:10005700D2A775807FC2A7D2B600C2B600D2B67942
:1000670064E509FDE50A120003D9F67590FFD2B7DA
:1000770000C2B700A990D2B7E975F00A84F508E97C
:1000870075F06484AFF0EF75F00A84F5098F0AFD07
:06009700EF12000380C11E
:00000001FF
