:030000000200AA51
:0C00AA00787FE4F6D8FD75810A0200346E
:10009A003F065B4F666D7D077F6F777C395E7971AE
:10006400D3EF9400EE940040147D6E7C00ED1D707F
:0D007400011CED4C70F7EF1F70E61E80E3DD
:01008100225C
:10000300AB05D2A77580DFC2A7D2A6EF90009A9363
:10001300F580C2A67F057E00120064D2A77580EF2B
:10002300C2A7D2A6EB93F580C2A67F057E0002008D
:010033006468
:10008200D2907FF47E01120064C290AF8CAE8AAD32
:070092008CEFB505EBAF0692
:010099002244
:10003400758905E4F58CF58AD28C120082A907E94A
:10004400C394644006E4F9F58CF58AE975F00A84F2
:1000540085F00AE975F00A84FDAF0A12000380DA1C
:00000001FF
