:0300000002000EED
:0C000E00787FE4F6D8FD758120020055D3
:1001EB003F065B4F666D7D077F6F777C395E79715C
:02021900C10022
:05000300120008D2A16B
:0100080022D5
:10019700D3EF9400EE940040147D6E7C00ED1D704B
:0D01A700011CED4C70F7EF1F70E61E80E3A9
:0101B4002228
:0A01FB00D2A0120003C2A002000807
:0A020500C2A0120003D2A0020008FC
:080158001201FB7FA01201B5AA
:10016000D2A112000830A00BE50AC394FA5004058E
:080170000A80F2C2A10200089E
:0A020F00D2A0120008D2A1020008DC
:1001B500E4FEEF25E0FFC2A112000892A0120003A1
:0E01C5000EBE08EEC2A1120008D2A002000871
:10010E00C2A1120008D2A0120008E4FED2A1120071
:10011E0008EF25E0FDA2A0E4334DFFC2A1120008B6
:04012E000EBE08E811
:0101320022AA
:1001D300AC07120158AF041201B5120160AF05124A
:0801E30001B5120160020205E2
:02017800AD07D1
:10017A00120158AF051201B51201601201FB7FA1ED
:0C018A001201B512016012010E120205F4
:010196002246
:1000DD00AB05D2A77580EFC2A7D2A6EF9001EB9327
:1000ED00F580C2A67F057E00120197D2A77580DF2D
:1000FD00C2A7D2A6EB93F580C2A67F057E000201B2
:01010D00975A
:10009A0012020F7F021201788F08E508D394644098
:1000AA0003E4F508758901758C3C758AB0D28CD247
:1000BA00AFD2A9E50875F00A84FFE50875F00A844D
:1000CA00ADF01200DD3000EBC200AD087F02120174
:0300DA00D380E0F0
:03000B00020133BC
:10013300C0E0C0D0758C3C758AB00509E509B414DC
:100143000F750900D2000508E508B46403750800BB
:05015300D0D0D0E03225
:10001A0002009AE493A3F8E493A34003F68001F262
:10002A0008DFF48029E493A3F85407240CC8C333E7
:10003A00C4540F4420C8834004F456800146F6DFB6
:10004A00E4800B0102040810204080900219E47E2B
:10005A00019360BCA3FF543F30E509541FFEE493AB
:10006A00A360010ECF54C025E060A840B8E493A372
:10007A00FAE493A3F8E493A3C8C582C8CAC583CA9D
:10008A00F0A3C8C582C8CAC583CADFE9DEE780BE55
:01021B0000E2
:00000001FF
