:0300000002000EED
:0C000E00787FE4F6D8FD7581290201D24C
:100259003F065B4F666D7D077F6F777C395E7971ED
:0C021000F583E493F580C2A67F057E0014
:10021C00D3EF9400EE940040147D6E7C00ED1D70C5
:0D022C00011CED4C70F7EF1F70E61E80E323
:0102390022A2
:1000ED008C208D21D2A77580DFC2A7D2A674592F7F
:1000FD00F58274023E120210D2A77580EFC2A7D20C
:10010D00A674592521F58274023520120210D2A74A
:10011D007580F7C2A7D2A674592BF58274023A12D4
:10012D000210D2A77580FBC2A7D2A674592525F55A
:10013D008274023524120210D2A77580FDC2A7D297
:10014D00A674592527F58274023526120210D2A7FE
:10015D007580FEC2A7D2A674592529F58274023581
:10016D0028F583E493F580C2A67F057E0002021C6C
:1001D200758911758C4C758AD0D2AFD2A9D28C7523
:1001E2008D4C758BD0D2AFD2ABD28E8508248509C7
:1001F20025851026851127851C28851D29AB0BAA6C
:0E0202000AAD0FAC0EAF1BAE1A1200ED80DD80
:03000B0002023AB4
:10023A00C0E0758C42758D44050DE50D7002050C04
:0F024A006414450C7006F50CF50DB290D0E0323F
:03001B0002001EC2
:10001E00C0E0C0F0C0D075D000C000C004C005C0A4
:10002E0006C007758D42758B440513E513700205E6
:10003E00126414451260030200DCF512F513051567
:10004E00E51570020514643C45147028F514F51579
:10005E000517E51770020516643C45167016F51661
:10006E00F5170519E519700205186418451870047E
:10007E00F518F519AE14AF157C007D0A12017D8CB2
:10008E001A8D1BAE14AF157C007D0A12017D8E0EEB
:10009E008F0FAE16AF177C007D0A12017D8C0A8D74
:1000AE000BAE16AF177C007D0A12017D8E088F09EC
:1000BE00AE18AF197C007D0A12017D8E108F11AE25
:1000CE0018AF197C007D0A12017D8C1C8D1DD00786
:0F00DE00D006D005D004D000D0D0D0F0D0E03282
:10017D00BC000BBE0029EF8DF084FFADF022E4CC66
:10018D00F875F008EF2FFFEE33FEEC33FCEE9DEC2F
:10019D00984005FCEE9DFE0FD5F0E9E4CEFD22ED75
:1001AD00F8F5F0EE8420D21CFEADF075F008EF2FBF
:1001BD00FFED33FD4007985006D5F0F222C398FDB0
:0501CD000FD5F0EA224D
:00000001FF
