:03000000020A628F
:0C0A6200787FE4F6D8FD758142020AA9F5
:100EF80025660054656D70657261747572653A0097
:100F08003F065B4F666D7D077F6FBF86DBCFE6EDE3
:040F1800FD87FFEF63
:100FCE00C109021000C8021200B4020C012C020E5C
:020FDE000140D0
:0510290012102ED2A1FF
:01102E00229F
:100F7A00D3EF9400EE940040147D6E7C00ED1D705A
:0D0F8A00011CED4C70F7EF1F70E61E80E3B8
:010F97002237
:0A0FF300D2A0121029C2A002102E95
:0A0FFD00C2A0121029D2A002102E8B
:080F1C00120FF37FA0120F98E1
:100F2400D2A112102E30A00BE516C394FA5004057A
:080F34001680F2C2A102102E8A
:0A100700D2A012102ED2A102102E6A
:100F9800E4FEEF25E0FFC2A112102E92A012102944
:0E0FA8000EBE08EEC2A112102ED2A002102E14
:100ED300C2A112102ED2A012102EE4FED2A1121023
:100EE3002EEF25E0FDA2A0E4334DFFC2A112102E88
:040EF3000EBE08E83F
:010EF70022D8
:100FB600AC07120F1CAF04120F98120F24AF0512C4
:080FC6000F98120F24020FFD29
:020F3C00AD07FF
:100F3E00120F1CAF05120F98120F24120FF37FA180
:0C0F4E00120F98120F24120ED3120FFD88
:010F5A002274
:100E0000C2B48F807F057E00120E11D2B47F057EA2
:010E100000E1
:100E1100D3EF9400EE940040147D6E7C00ED1D70C4
:0D0E2100011CED4C70F7EF1F70E61E80E322
:010E2E0022A1
:08101100C2B5120E00C2B422A8
:08101900D2B5120E00C2B42290
:020D4E00AB07F1
:100D5000ED75F06484F527ED75F06484AFF0EF7500
:100D6000F00A84F9EF75F00A84AAF0EB2480FF12F0
:100D70001011E5272430FF121019E92430FF12105A
:0F0D800019EB2483FF121011EA2430FF0210191F
:100D0900C2A7C2A6C2B41210077F381210117F0CF5
:100D19001210117F061210117F011210117F80121B
:100D29001011E4FBEB900EFB93FF121019120E0D3C
:100D39000BBB0CF07F8E1210117F2E1210197F053C
:050D49007E00020E1106
:100F5B00C2A27F677E00EF1F70011EEF4E70F7D2AB
:0E0F6B00A27E007F04EF1F70011EEF4E70F794
:010F79002255
:100E8500C2A20DBD0000D2A20DBD00000DBD000027
:100E9500A2A292007C007D08ED1D70011CED4C7036
:060EA500F7A200E433FF98
:010EAB002224
:100D8F00E4F52CF52DFBFA120E85AD077C00ED7EF8
:100D9F00007807C333CE33CED8F9F5828E83E52C96
:100DAF00C313FEE52D13FFEE4583F52CEF4582F5BA
:0E0DBF002D0BBB00010AEB64084A70CBAF2D70
:010DCD002203
:0C0C5900120F5B7F017E00120E117FCC99
:020C6500AD07D9
:100C6700E4FFFEED139200EDC313FD30001BC2A29B
:100C77000BBB00000BBB0000D2A27A007B08EB1B6A
:100C870070011AEB4A70F7801BC2A27A007B08EB4F
:100C97001B70011AEB4A70F7D2A20BBB00010A0BBB
:0F0CA700BB00010A0FBF00010EEF64084E70B4CE
:010CB600221B
:08102100120C597F44020C651A
:100B6E00120C597FBE120C65120D8FA907120D8F34
:100B7E007514008F15E515751500F514AF01EF42CC
:100B8E0015E4AC14AD15120206E4FBFA7980783D3B
:100B9E001200FB8F0B8E0A8D098C08E4FFFE7D2060
:100BAE007C41AB0BAA0AA909A8081200FBE4FBFAC8
:100BBE00F9783F12000A12023F8E148F15AF0BAE5A
:100BCE000AAD09AC087BCD7ACC794C783D12000A7F
:0C0BDE008F0B8E0A8D098C08AE14AF1529
:010BEA0022E8
:100E2F00C2A6ED900F0893F580D2A6C2A6C2A77EE8
:100E3F00FF7401A807088002C333D8FCF452068E52
:0C0E4F0080D2A7C2A77F017E00020E1116
:040CB700AB07AA06D7
:100CBB007C007D6412055AAD07E4FF120E2F7C00F9
:100CCB007D64AF03AE0212055A7E007F0ACFCDCFF3
:100CDB00CECCCE12055AAD07ED240AFD7F01120EC4
:100CEB002FAE02AF037C007D6412055A7E007F0A93
:0E0CFB00CFCDCFCECCCE12055A7F02020E2FE7
:020DCE008F2A6A
:100DD000852A2BC2A3EDF4F590AF2B152BEF6008FD
:100DE000120B6E120CB780F1D2A37590FF852A2BDF
:0F0DF000AF2B152BEF6008120B6E120CB780F1B2
:010DFF0022D1
:040BEB008E278F289A
:100BEF00D3E5289513E5279512400FD3E5289511E6
:100BFF00E527951050047D018027D3E5289513E54F
:100C0F0027951250047D038029D3E528950DE527FC
:100C1F00950C4011D3E528950FE527950E50067DCD
:100C2F00047F28800FC3E528950FE527950E400711
:100C3F007D0C7F0A020DCE752928AF291529EF608B
:090C4F0008120B6E120CB780F1C3
:010C58002279
:100FE100758920E4F587759850758DFD758BFDD257
:020FF1008E224E
:100E5B008B278A288929AB270529E529AA2870021F
:100E6B00052814F9120502F5993099FDC299AB27A3
:0A0E7B00AA28A92912050270DD2241
:100AEE00120D09120FE1121021E4F526120B6EAD54
:100AFE00077F0C120D4E7F647E00120E11120B6ECC
:100B0E00120CB70526E526C3940A40E0AF15AE14C5
:100B1E00120BEB752AFF752B0E752CF8850B308595
:100B2E000A2F85092E85082D7B007A007922120660
:100B3E004FE4F526120B6E120CB70526E526C3946C
:100B4E000A40F17B007A007922120E5BE4F526E56D
:100B5E0026C3940A5090120B6E120CB7052680EF26
:100003000202ABE86480F8E933E83360110460F07E
:10001300ED33EC337009E8FCE9FDEAFEEBFF220463
:1000230060DED3EB9FEA9EE99DE8C2E78CF0C2F75E
:1000330095F0400CE8CCF8E9CDF9EACEFAEBCFFB2A
:1000430012027685D0F05804700320D5B3E804700B
:10005300075002B2D50202B592D5EC0460F7E4CCA6
:10006300C0E0C398F8603B94186008400DD0E0FBF3
:1000730002028DE4FBFAC9FC8028E830E406E4C9F7
:10008300FBE4CAFCE830E305E4C9CACBFCE8540747
:100093006010F8C3E913F9EA13FAEB13FBEC13FC52
:1000A300D8F130F52FC3E49CFCEF9BFFEE9AFEEDF5
:1000B30099FDD0E0FBEF4E4D4C701222DB030202A0
:1000C300B2EC2CFCEF33FFEE33FEED33FDED30E706
:1000D300EB02028DEF2BFFEE3AFEED39FDD0E0FB94
:1000E30050130BBB00030202B5ED13FDEE13FEEF3D
:0800F30013FFEC13FC02028D67
:1000FB00EC4D6011E8497017ED33EC3304600DE4FF
:10010B00FCFFFEFD22E933E8330470F80202AB1268
:10011B00027658046009E4CC248150062850090269
:10012B0002B52840030202B2C0E0EB4A7044B9802A
:10013B0006D0E0FB0202A1EF4E701CBD8008EBFF66
:10014B00EAFEE9FD80EBE98DF0A4FEE5F00201E4A7
:10015B00E9CDF9EAFEEBFFEF89F0A4FCE5F0CE89DF
:10016B00F0A42EFFE435F0CD89F0A42DFEE435F09C
:10017B008067EF4E7005BD80D780C3EF8BF0A4ACCA
:10018B00F0EE8BF0A42CFCE435F0F8EF8AF0A42C05
:10019B00E5F038FCE433CB8DF0A42CFCE5F03BF818
:1001AB00EE8AF0A42CFCE5F038F8E433CF89F0A408
:1001BB002CFCE5F038CF3400CE89F0A42FFFE5F00E
:1001CB003EFEE433C98DF0A42EFEE5F039CD8AF066
:1001DB00A42FFFE5F03EFEE43DFD33D0E0FB5007DE
:1001EB000BBB000F0202B5EC2CFCEF33FFEE33FE22
:0601FB00ED33FD02028D50
:1002010075F020800E75F010800575F0087D007E78
:10021100007F003392D530D5031205AFEC33401087
:10022100EF33FFEE33FEED33FDEC33FCD5F0ED2281
:0E023100E5F0247EA2D513CC92E7CDCEFF22BD
:10023F00EDD2E7CD33EC3392D524814006E4FFFEB7
:10024F00FDFC22FCE4CFCECDCC24E0501174FF8016
:10025F00EDC3CC13CCCD13CDCE13CECF13CF0470B3
:07026F00F030D5DE0205AFFF
:1005F300E53E242AF8E6053E227827300702782ACA
:10060300E475F0011205BD0205022000EB7F2ED236
:10061300008018EF540F2490D43440D4FF30040BDF
:10062300EF24BFB41A0050032461FFE53F600215B5
:100633003F0542E5427002054130070D7827E47516
:10064300F0011205BDEF020548020EAC7403D20798
:100653008003E4C207F53E8B278A288929E4F53F06
:10066300F541F542E53F60077F2012062E80F575C0
:1006730040FFC201C200C202C203C205C206C208D1
:100683001205FCFF700D3007057F0012063FAF42D5
:10069300AE4122B4255FC2D5C2041205FCFF24D0AB
:1006A300B40A00501A75F00A783F30D50508B6FF32
:1006B3000106C6A426F620D5047002D20380D924ED
:1006C300CFB41A00EF5004C2E5D20402092CD201C0
:1006D30080C6D20080C0D20280BCD2D580BAD205F7
:1006E30080B47F2012062E2002077401B53F00401C
:1006F300F11205F3FF12062E020667D208D2068016
:10070300951205F3FB1205F3FA1205F3F94A4B7040
:100713000679237A0A7BFF20022EE53F602A7E00BA
:100723008E8275830012051B60060EEE654070F025
:10073300C2D5EBC0E0EAC0E0E9C0E0EE12098CD01C
:10074300E0F9D0E0FAD0E0FB120502FF60AAEBC0AB
:10075300E0EAC0E0E9C0E012062ED0E02401F9D0BF
:10076300E03400FAD0E0FBE5400460DCD540D980FA
:1007730087D20280A212096F60F7E540700104126C
:1007830002C0A940600DE540600914F540120A1645
:10079300EF60F3EA30E702F404C3995077EAF425F3
:1007A300400430E701E404F540800D12096F60C195
:1007B300EA054025401202C0EA783DF630E701E43D
:1007C300254004D540042005011412098CE4C0E03F
:1007D300120A16783DE6601320E70714F612061690
:1007E300802204F6D0E014C0E07F00120616E54034
:1007F300600712060D1540800B30050312060DD05D
:10080300E0020667D0E00480C512096F60A0E540EE
:10081300041202C0783DEAF6E540200502600104B7
:05082300240412098C01
:1008280074FF04C0E0120A16120616E540200502FD
:10083800600312060DD0E0B540E87F451206207827
:100848003DE67F2B30E7047F2DF404C0E012062E2E
:10085800D0E075F00A84C0F0120617D0E01206172F
:10086800020667791080027908C206C2088008D299
:10087800D5790A8004790AC2D5E540047002F540AA
:10088800E4FAFDFEFF1205F3FC7B082001131205B4
:10089800F3FD7B1030000A1205F3FE1205F3FF7B0F
:1008A80020EC3382D592D55013C3E43000069FFF65
:1008B800E49EFEE42001039DFDE49CFCE4CBF8C229
:1008C80001EC700CCFCECDCCE824F8F870F380178B
:1008D800C3EF33FFEE33FEED33FDEC33FCEB33FBBC
:1008E800994002FB0FD8E9EB300105F8D0E0C44885
:1008F800B201C0E00AEC4D4E4F78207B0070C2EA8E
:10090800B5400040BCC0E012098ED0F0D0E0200114
:1009180004C4C0E0C4B201C0F0120617D0F0D5F08C
:10092800EB0206671205CD070453086B5806D54C31
:1009380006D142086F4F08774408774906EA43080A
:100948007D5507AE46080C450778470A435006D937
:100958002D06DD2E07002B06E12306FE200A2C2A91
:10096800069948000006F8E540B4FF0375400612F2
:1009780005F3FC1205F3FD1205F3FE1205F3FF78EB
:10098800360202EF790AA2D5200314300509B910FE
:10099800020404B9080104A2D5200602500104206B
:1009A80002689202B53F005034C0E07F203003193E
:1009B8007F30A20272067205500F1209E5C202C208
:1009C80006C205C2087F30800F300503E9C0E01277
:1009D800062E300503D0E0F9D0E0B53FCC3005173E
:1009E8007F30B9100C12062E7F583004077F7880AC
:1009F80003B9080312062E3002057F2D02062E7F4A
:100A0800202008F87F2B2006F322920280CF7F0057
:100A1800B4070050052436F8E6FF22286E756C6C82
:100A28002900D2011205F33001F8C201783F30D510
:100A38000108F60206992D504349581205F324037C
:100A4800B405004001E4900A3E9312061F743A125E
:0A0A5800061FD203753F0402086B6D
:10027600E9D2E7C933E833F892D5EDD2E7CD33ECCE
:0702860033FC5002B2D52247
:10028D00EC30E7100FBF000C0EBE00080DBD0004D2
:10029D000BEB6014A2D5EB13FCED92E7FD2274FF7E
:1002AD00FCFDFEFF22E480F8A2D574FF13FC7D80D7
:0302BD00E480EFEB
:1002C000F920E72824F950037907E4F42402FB1805
:1002D000DBFDE624FB5014E9600DE4F618E604F6B5
:0F02E000B40A08E4F6D9F57401F60A22C2D52251
:1002EF00ED33EC3392D5FA602AB4FF33EDC2E77BDE
:1002FF00FF60067A037914E4227A03791D20D5046E
:10030F007A037918224E614E002B494E46002D4933
:10031F004E4600E47A08F608DAFC7B00740722E800
:10032F00C0E0ECC0E0EDC0E0EEC0E0EFC0E0EA7589
:10033F00F010A4CAABF075F04DA42BFBE435F0FC24
:10034F00EA2410FAEB34C5FBEC34D9FCEDC2E7FF1D
:10035F0075F056A4F42411C5F0F434C58FF0A42A17
:10036F00E5F03BE43CF620E7141204C2D0E0FFD0E6
:10037F00E0FED0E0FDD0E0FC1203F58014F404128F
:10038F0004C2D0E0FFD0E0FED0E0FDD0E0FC1200D0
:10039F00FBD0E0F8E6FAEDD2E7CD33EC332482FB65
:1003AF00E4C3CF33CFCE33CECD33CD33DBF37B07A7
:1003BF0075F00A846004F6081B0AE5F0F6088FF062
:1003CF00740AA4FFACF08EF0740AA42CFEACF050AB
:1003DF00010C8DF0740AA42CFDE435F0F608DBDE79
:0303EF007407226E
:1003F2000202B5EC5D046005E8590470030202AB29
:10040200120276580460F6EC4860F2EC7004FDFECD
:10041200FF22C860DB2481C85009C39860025006DD
:100422000202B29850CAF582E9294B4A7005AB82A2
:100432000202A175F0007C1A7880C3EF9BEE9AED60
:1004420099400DC3EF9BFFEE9AFEED99FDE842F055
:10045200DC23ACF0D0E0FFD0E0FED0E0FDAB8220A8
:10046200E7101BEB60BAEC2CFCEF33FFEE33FEED32
:1004720033FD02028DE803F830E705C0F075F000A5
:10048200EF2FFFEE33FEED33FD40B830E7C280AA16
:100492003F8000004120000042C80000447A000072
:1004A200461C400047C35000497424004B189680F4
:1004B2004CBEBC205A0E1BCA6753C21C749DC5AEEB
:1004C200FB60065407601C23231204F0EB543860CF
:1004D200091204DC1204EB1200FBECF8EDF9EEFA5F
:1004E200EFCB22EB1204EB80F1543803241C90046E
:1004F20092FE93FC0EEE93FD0EEE930ECE93FF2230
:100A6E00020AEEE493A3F8E493A34003F68001F2A6
:100A7E0008DFF48029E493A3F85407240CC8C33389
:100A8E00C4540F4420C8834004F456800146F6DF58
:100A9E00E4800B0102040810204080900FCEE47E0B
:100AAE00019360BCA3FF543F30E509541FFEE4934D
:100ABE00A360010ECF54C025E060A840B8E493A314
:100ACE00FAE493A3F8E493A3C8C582C8CAC583CA3F
:100ADE00F0A3C8C582C8CAC583CADFE9DEE780BEF7
:010FE0000010
:10050200BB010689828A83E0225002E722BBFE02F7
:09051200E32289828A83E493222A
:10051B00BB010CE58229F582E5833AF583E0225095
:10052B0006E92582F8E622BBFE06E92582F8E222DF
:0D053B00E58229F582E5833AF583E49322F9
:10054800BB010689828A83F0225002F722BBFE0192
:02055800F3228C
:10055A00BC000BBE0029EF8DF084FFADF022E4CC85
:10056A00F875F008EF2FFFEE33FEEC33FCEE9DEC4E
:10057A00984005FCEE9DFE0FD5F0E9E4CEFD22ED94
:10058A00F8F5F0EE8420D21CFEADF075F008EF2FDE
:10059A00FFED33FD4007985006D5F0F222C398FDCF
:0505AA000FD5F0EA226C
:0E05AF00C3E49FFFE49EFEE49DFDE49CFC225D
:1005BD00FAE6FB0808E6F925F0F618E6CA3AF6223F
:1005CD00D083D082F8E4937012740193700DA3A3BD
:1005DD0093F8740193F5828883E4737402936860D1
:0605ED00EFA3A3A380DFD1
:100EAC00EFB40A07740D120EB7740A309811A89992
:100EBC00B8130CC2983098FDA899C298B811F630A6
:070ECC0099FDC299F599227E
:00000001FF
